:02000000712A63
:10000600053084000008000883120313F000701105
:06001600700880000800E4
:04001C0000000800D8
:10002000053084000008000883120313F000F0116B
:06003000700880000800CA
:10003600831203132230FC00F801F901FA01FB01D7
:10004600FC03031951280310FB0CFA0CF90CF80CED
:10005600F30CF20CF10CF00C031C2328FC0303191F
:1000660043287408F80775080318750FF90776080A
:100076000318760FFA0777080318770FFB07272868
:100086007408F80775080318750FF907760803183A
:0E009600760FFA0777080318770FFB070800AC
:1000A4008316031385150E200E2005150E200E2031
:1000B4001020831685110E200E20032083160511AF
:0200C400080032
:1000C60083120313FB01FA01F901F801A001730D74
:1000D600F80D7408F8027508031C750FF902760806
:1000E600031C760FFA027708031C770FFB02000148
:1000F600031C0130A002F30D0730FC00730DF80D50
:10010600F90DFA0DFB0DA00D7408731C9C28F8025E
:100116007508031C750FF9027608031C760FFA02A0
:100126007708031C770FFB020001031C0130A002B5
:10013600AD28F80775080318750FF9077608031830
:10014600760FFA0777080318770FFB0700010318E5
:100156000130A007F30DFC0B8128720DF80DF90D87
:10016600FA0DFB0DA00D7408731CCB28F802750858
:10017600031C750FF9027608031C760FFA0277083E
:10018600031C770FFB020001031C0130A002DC28D0
:10019600F80775080318750FF90776080318760F20
:1001A600FA0777080318770FFB07000103180130D9
:1001B600A007F20D0730FC00720DF80DF90DFA0DCF
:1001C600FB0DA00D7408721CFA28F8027508031CB2
:1001D600750FF9027608031C760FFA027708031CDE
:1001E600770FFB020001031C0130A0020B29F80760
:1001F60075080318750FF90776080318760FFA07BE
:1002060077080318770FFB07000103180130A007D2
:10021600F20DFC0BDF28710DF80DF90DFA0DFB0D33
:10022600A00D7408721C2929F8027508031C750FA5
:10023600F9027608031C760FFA027708031C770F7B
:10024600FB020001031C0130A0023A29F8077508D9
:100256000318750FF90776080318760FFA0777085B
:100266000318770FFB07000103180130A007F10DF3
:100276000730FC00710DF80DF90DFA0DFB0DA00D00
:100286007408711C5829F8027508031C750FF902C9
:100296007608031C760FFA027708031C770FFB0219
:1002A6000001031C0130A0026929F807750803182C
:1002B600750FF90776080318760FFA0777080318FB
:1002C600770FFB07000103180130A007F10DFC0BA7
:1002D6003D29700DF80DF90DFA0DFB0DA00D7408F2
:1002E600711C8729F8027508031C750FF902760838
:1002F600031C760FFA027708031C770FFB02000136
:10030600031C0130A0029829F80775080318750F19
:10031600F90776080318760FFA0777080318770F98
:10032600FB07000103180130A007F00D0730FC00A1
:10033600700DF80DF90DFA0DFB0DA00D7408701C6B
:10034600B629F8027508031C750FF9027608031C16
:10035600760FFA027708031C770FFB020001031CD5
:100366000130A002C729F80775080318750FF907A9
:1003760076080318760FFA0777080318770FFB0736
:10038600000103180130A007F00DFC0B9B29701823
:10039600DA297408F80775080318750FF90776083F
:1003A6000318760FFA0777080318770FFB0708007C
:1003B600013083120313B2000030B3008030B00066
:1003C600B101300831040319112A0E200E200E2027
:1003D6000E200320831605110E200E2083123008EE
:1003E6002F05F00000303105F10070087104031983
:1003F600FF2983168515022A1020831685110E20E3
:100406000E20051583122E1005190D2A2E1C0C2AF6
:100416000D2A072AB10CB00CB113E429B201B301BD
:100426000E200E200320831605110E200E208515A2
:100436000E200E200E200E20051583122E100519F3
:10044600282A2E1C272A282A222AB201B3010E2086
:100456000E20851D2F2A32140E200E200E200E206F
:100466000E200E200E200E200E200E200E200E2016
:100476000E200E200E200E200320831605111020BC
:0C0486008316851183123208F000080074
:100492001020831685110E200E20051583122E10B2
:1004A2000519572A2E1C562A572A512A0E200E2089
:1004B2000E200E200E200E200E200E2083168515F3
:0604C2000E200E200800D0
:1004C800831603130515851583122E100519702A36
:0A04D8002E1C6F2A702A6A2A080001
:1004E20083120313A401A501A601A701A801A90172
:1004F200AA01AB01AC01AD01A30185018601FF3068
:1005020083168500FF308600851081130730831221
:100512009F006422F430A4000130A5000030A60040
:100522000030A7000609F0007008A3007008383CEC
:10053200A8000030031C013E043CA9000030A91BA6
:10054200FF30AA00AB002808F0002908F1002A08B1
:10055200F2002B08F300E830F4000330F500F60156
:10056200F7011B207008A8007108A9007208AA00F0
:100572007308AB00F430F4000130F5000030F600EF
:100582000030F70063207008AC007108AD00522003
:10059200C2308312AF00DB212D08AF00DB212C0813
:1005A200AF00DB21CE30AF00DB21FF30AF00DB211B
:1005B20049220B30FB002630FC005D30FD00FD0BB4
:1005C200E02AFC0BE02AFB0BE02A00000000831269
:1005D20085145220C2308312AF00DB212D08AF00F8
:1005E200DB212C08AF00DB218E30AF00DB21FF3096
:0805F200AF00DB214922FC2AC5
:02400E00700040
:00000001FF
